S00B00004C45442E7372656344
S11300000C9434000C943E000C943E000C943E007E
S11300100C943E000C943E000C943E000C943E0064
S11300200C943E000C943E000C943E000C943E0054
S11300300C943E000C943E000C943E000C943E0044
S11300400C943E000C943E000C943E000C943E0034
S11300500C943E000C943E000C943E000C943E0024
S11300600C943E000C943E0011241FBECFEFD8E048
S1130070DEBFCDBF0E9464000C946B000C940000A2
S1130080AC0184E084B920E030E024173507DCF4C7
S113009095B1946095B96FE38DE093E06150804031
S11300A09040E1F700C0000095B19B7F95B96FE3E4
S11300B08DE093E0615080409040E1F700C0000083
S11300C02F5F3F4FE2CF089585E090E00E9440000B
S10D00D080E090E00895F894FFCF5B
S9030000FC
