S01700004763634170706C69636174696F6E312E737265635B
S11300000C9434000C943E000C943E000C943E007E
S11300100C943E000C943E000C943E000C943E0064
S11300200C943E000C943E000C943E000C943E0054
S11300300C943E000C943E000C943E000C943E0044
S11300400C943E000C943E000C943E000C943E0034
S11300500C943E000C943E000C943E000C943E0024
S11300600C943E000C943E0011241FBECFEFD8E048
S1130070DEBFCDBF0E948E000C94DB000C94000008
S11300801092C50085E08093C40088E18093C1008C
S113009086E08093C20008958091C0008823E4F72D
S11300A08091C6000895CF92DF92EF92FF92CF9392
S11300B0DF936B017C01EA01DB0183E0F6018093AD
S11300C05700E89507B600FCFDCF20E030E020386B
S11300D03105A8F4FE01E20FF31F4081818190E015
S11300E0982F8827842BF901EA0FFB1F51E00C019C
S11300F050935700E89511242E5F3F4FE8CF85E0D9
S1130100F60180935700E89507B600FCFDCFDF9118
S1130110CF91FF90EF90DF90CF900895CF92DF9230
S1130120EF92FF920F931F93CF93DF93CDB7DEB778
S1130130C058D1090FB6F894DEBF0FBECDBF0E94E0
S11301404000C12CD12C760100E010E001C08901EF
S11301500E944C008823D1F098012F5F3F4FE1E0CB
S1130160F0E0EC0FFD1FE00FF11F80832038310514
S113017071F7AE014F5F5F4FC701B6010E94530094
S113018080E8C80ED11CE11CF11CDECFE0E0F0E0F9
S1130190099580E090E0C058DF4F0FB6F894DEBFB9
S11301A00FBECDBFDF91CF911F910F91FF90EF90C4
S10D01B0DF90CF900895F894FFCF7C
S9030000FC
