:100000000C9434000C9449000C9449000C94490061
:100010000C9449000C9449000C9449000C9449003C
:100020000C9449000C9449000C9449000C9449002C
:100030000C9449000C9449000C9449000C9449001C
:100040000C9449000C9449000C9449000C9449000C
:100050000C9449000C9449000C9449000C944900FC
:100060000C9449000C94490011241FBECFEFD8E036
:10007000DEBFCDBF11E0A0E0B1E0ECEEF0E002C0E9
:1000800005900D92AA30B107D9F70E944B000C944D
:1000900074000C9400008FEF84B98AB980E090E07E
:1000A0008A309105DCF7FC01E050FF4F208125B933
:1000B0002FE734E84EE1215030404040E1F700C0E6
:1000C0000000E9E0F0E0E81BF90BE050FF4F208171
:1000D0002BB92FE734E84EE1215030404040E1F7A2
:0C00E00000C000000196DCCFF894FFCFB8
:0A00EC003F065B4F666D7D077F6FD6
:00000001FF
